{
  "transactions": [
    {
      "hash": "0x84976d2d3ad10f3f427c6e67e248b42d21e54cd09efcc817a412aea0503edd2e",
      "transactionType": "CALL",
      "contractName": "LinkToken",
      "contractAddress": "0x779877A7B0D9E8603169DdbD7836e478b4624789",
      "function": "transferAndCall(address,uint256,bytes)",
      "arguments": [
        "0x8103B0A8A00be2DDC778e6e7eaa21791Cd364625",
        "3000000000000000000",
        "0x0000000000000000000000000000000000000000000000000000000000002035"
      ],
      "transaction": {
        "type": "0x02",
        "from": "0x3a28411752169e014b741debdfa0023aba84ab56",
        "to": "0x779877a7b0d9e8603169ddbd7836e478b4624789",
        "gas": "0x1b43f",
        "value": "0x0",
        "data": "0x4000aea00000000000000000000000008103b0a8a00be2ddc778e6e7eaa21791cd36462500000000000000000000000000000000000000000000000029a2241af62c0000000000000000000000000000000000000000000000000000000000000000006000000000000000000000000000000000000000000000000000000000000000200000000000000000000000000000000000000000000000000000000000002035",
        "nonce": "0xa",
        "accessList": []
      },
      "additionalContracts": [],
      "isFixedGasLimit": false
    }
  ],
  "receipts": [],
  "libraries": [],
  "pending": [
    "0x84976d2d3ad10f3f427c6e67e248b42d21e54cd09efcc817a412aea0503edd2e"
  ],
  "returns": {},
  "timestamp": 1704204622,
  "chain": 11155111,
  "multi": false,
  "commit": "dce6432"
}