{
  "transactions": [
    {
      "hash": "0x84976d2d3ad10f3f427c6e67e248b42d21e54cd09efcc817a412aea0503edd2e",
      "transactionType": "CALL",
      "contractName": "LinkToken",
      "contractAddress": "0x779877A7B0D9E8603169DdbD7836e478b4624789",
      "function": "transferAndCall(address,uint256,bytes)",
      "arguments": [
        "0x8103B0A8A00be2DDC778e6e7eaa21791Cd364625",
        "3000000000000000000",
        "0x0000000000000000000000000000000000000000000000000000000000002035"
      ],
      "transaction": {
        "type": "0x02",
        "from": "0x3a28411752169e014b741debdfa0023aba84ab56",
        "to": "0x779877a7b0d9e8603169ddbd7836e478b4624789",
        "gas": "0x1b43f",
        "value": "0x0",
        "data": "0x4000aea00000000000000000000000008103b0a8a00be2ddc778e6e7eaa21791cd36462500000000000000000000000000000000000000000000000029a2241af62c0000000000000000000000000000000000000000000000000000000000000000006000000000000000000000000000000000000000000000000000000000000000200000000000000000000000000000000000000000000000000000000000002035",
        "nonce": "0xa",
        "accessList": []
      },
      "additionalContracts": [],
      "isFixedGasLimit": false
    }
  ],
  "receipts": [
    {
      "transactionHash": "0x84976d2d3ad10f3f427c6e67e248b42d21e54cd09efcc817a412aea0503edd2e",
      "transactionIndex": "0x3a",
      "blockHash": "0x0ce9fb11da1ebdde44d88c84dd485634cba77f14508aef5250d7ed0ae1180e9b",
      "blockNumber": "0x4c6736",
      "from": "0x3A28411752169E014b741DeBDfA0023ABA84aB56",
      "to": "0x779877A7B0D9E8603169DdbD7836e478b4624789",
      "cumulativeGasUsed": "0x6c6af0",
      "gasUsed": "0x12a4a",
      "contractAddress": null,
      "logs": [
        {
          "address": "0x779877A7B0D9E8603169DdbD7836e478b4624789",
          "topics": [
            "0xddf252ad1be2c89b69c2b068fc378daa952ba7f163c4a11628f55a4df523b3ef",
            "0x0000000000000000000000003a28411752169e014b741debdfa0023aba84ab56",
            "0x0000000000000000000000008103b0a8a00be2ddc778e6e7eaa21791cd364625"
          ],
          "data": "0x00000000000000000000000000000000000000000000000029a2241af62c0000",
          "blockHash": "0x0ce9fb11da1ebdde44d88c84dd485634cba77f14508aef5250d7ed0ae1180e9b",
          "blockNumber": "0x4c6736",
          "transactionHash": "0x84976d2d3ad10f3f427c6e67e248b42d21e54cd09efcc817a412aea0503edd2e",
          "transactionIndex": "0x3a",
          "logIndex": "0x5f",
          "removed": false
        },
        {
          "address": "0x779877A7B0D9E8603169DdbD7836e478b4624789",
          "topics": [
            "0xe19260aff97b920c7df27010903aeb9c8d2be5d310a2c67824cf3f15396e4c16",
            "0x0000000000000000000000003a28411752169e014b741debdfa0023aba84ab56",
            "0x0000000000000000000000008103b0a8a00be2ddc778e6e7eaa21791cd364625"
          ],
          "data": "0x00000000000000000000000000000000000000000000000029a2241af62c0000000000000000000000000000000000000000000000000000000000000000004000000000000000000000000000000000000000000000000000000000000000200000000000000000000000000000000000000000000000000000000000002035",
          "blockHash": "0x0ce9fb11da1ebdde44d88c84dd485634cba77f14508aef5250d7ed0ae1180e9b",
          "blockNumber": "0x4c6736",
          "transactionHash": "0x84976d2d3ad10f3f427c6e67e248b42d21e54cd09efcc817a412aea0503edd2e",
          "transactionIndex": "0x3a",
          "logIndex": "0x60",
          "removed": false
        },
        {
          "address": "0x8103B0A8A00be2DDC778e6e7eaa21791Cd364625",
          "topics": [
            "0xd39ec07f4e209f627a4c427971473820dc129761ba28de8906bd56f57101d4f8",
            "0x0000000000000000000000000000000000000000000000000000000000002035"
          ],
          "data": "0x000000000000000000000000000000000000000000000000000000000000000000000000000000000000000000000000000000000000000029a2241af62c0000",
          "blockHash": "0x0ce9fb11da1ebdde44d88c84dd485634cba77f14508aef5250d7ed0ae1180e9b",
          "blockNumber": "0x4c6736",
          "transactionHash": "0x84976d2d3ad10f3f427c6e67e248b42d21e54cd09efcc817a412aea0503edd2e",
          "transactionIndex": "0x3a",
          "logIndex": "0x61",
          "removed": false
        }
      ],
      "status": "0x1",
      "logsBloom": "0x0000001400000000000000000400000000000000000000020000000002000000000000000000800000000000000010000000000000000000000000000000000000000002000000000000000800000000000000000000100000002000000000000000000000000000000000000000000000000000400000000000001200000000000000000c000020000000000000800010000020000000000000000000000000000000000000000000000000000000000000000000000000000400000000000000000002000000000000000000000000008000000000000100000000000000000000000000000000000000000000000000000000000000000000000000000000",
      "type": "0x2",
      "effectiveGasPrice": "0xb93fc944"
    }
  ],
  "libraries": [],
  "pending": [],
  "returns": {},
  "timestamp": 1704204638,
  "chain": 11155111,
  "multi": false,
  "commit": "dce6432"
}